:020000040800F2
:10000000280F0020A50700087302000875020008E9
:10001000790200087D02000881020008000000004B
:100020000000000000000000000000008502000841
:100030008702000800000000890200088B02000807
:10004000BF070008BF070008BF070008BF07000878
:10005000BF070008BF0700084F260008BB2600089E
:10006000BF070008BF070008BF070008BF07000858
:10007000BF070008BF070008BF070008BF07000848
:10008000BF070008BF070008BF070008BF07000838
:10009000BF070008BF070008BF070008BF07000828
:1000A000BF070008BF070008BF070008BF07000818
:1000B000BF070008D72800084F2F0008BF07000817
:1000C000BF070008BF070008BF070008BF070008F8
:1000D000BF070008190700083B2D0008BF070008EC
:1000E00087260008BF070008BF07000800F002F8D5
:1000F00000F090F80AA090E8000C82448344AAF132
:100100000107DA4501D100F085F8AFF2090EBAE82F
:100110000F0013F0010F18BFFB1A43F0010318473B
:100120001457000034570000103A24BF78C878C133
:10013000FAD8520724BF30C830C144BF04680C60ED
:10014000704700000023002400250026103A28BF35
:1001500078C1FBD8520728BF30C148BF0B60704739
:100160006E2903F04885702903F0D083662905F0D5
:10017000A382652905F0A082672905F09D82612987
:10018000AFF3008003681B0A28BF41F08001692992
:1001900003F03E83642903F03B83752903F0388321
:1001A0006F2903F04386782903F09C83E92903F043
:1001B000DB85E42903F0D885F52903F0D585EF29FF
:1001C00003F04086F82903F09B830368DB0928BF0E
:1001D00041F08001632903F04A85732903F04F85BC
:1001E000E32904F09880F32904F09D8000207047F3
:1001F0001FB504F0F3F804000020002104F0D6FD40
:10020000401C60600020002104F0BAFDE0601FBDCA
:1002100010B510BD04F0B4F81146FFF7E9FF00F087
:1002200008F804F091F903B4FFF7F2FF03BC00F003
:1002300019FA00F099F8482000F0BAF900F00CFA29
:100240004FF4165000F01CFA00F00EF900F03EF9E1
:1002500000214FF4617002F051FA02F024FF03F024
:10026000C5F94FF4E13002F0DFFD02F08FFB00BF73
:10027000FEE7704700BFFEE700BFFEE700BFFEE7F6
:1002800000BFFEE770477047704770470CB500200D
:10029000019000906B48006840F480306949086024
:1002A00000BF6848006800F4003000900198401CCE
:1002B0000190009818B90198B0F5A06FF1D161488C
:1002C000006810F4003F02D00120009001E00020FF
:1002D00000900098012842D15B48006840F010006F
:1002E000594908600846006820F003000860084685
:1002F000006840F002000860524840685149486078
:100300000846406848600846406840F4806048609D
:100310000846406820F47C1048600846406840F475
:10032000E81048600846006840F08070086000BF30
:100330004448006810F0007FFAD04248406820F03E
:100340000300404948600846406840F002004860A9
:1003500000BF3C48406800F00C000828F9D10CBDF3
:1003600010B5FFF793FF10BD10B53648006840F098
:100370000100344908600846406834490840314962
:10038000486008460068324908402E49086008461F
:10039000006820F4802008600846406820F4FE00D1
:1003A00048604FF41F008860FFF7DAFF4FF00060ED
:1003B0002849086010BD10B5002100200022214B03
:1003C0005B6803F00C0121B1042906D0082928D16B
:1003D00007E0214B214C236027E01F4B1F4C23607B
:1003E00023E0184B5B6803F47010164B5B6803F452
:1003F0008032022303EB904022B9194B4343174C40
:1004000023600DE00F4B5B6813F4003F04D0144BE6
:100410004343124C236003E00F4B43430F4C2360D4
:1004200003E00D4B0D4C236000BF00BF054B5B6824
:10043000C3F303130B4CE15C084B1B68CB40074C28
:10044000236010BD00100240002002400000FFF8B1
:10045000FFFFF6FE08ED00E000127A000000002029
:1004600000093D000400002008B50121042000F02F
:10047000F3FE4FF48070ADF8000010208DF80300FB
:1004800003208DF8020069460E4800F02FFC4FF45F
:1004900080710C4800F0D5FC0121202000F0DCFE2A
:1004A0000420ADF8000010208DF8030003208DF823
:1004B00002006946044800F019FC0421024800F0DB
:1004C000C0FC08BD000801400014014008B501212E
:1004D000042000F0C1FE4FF42040ADF80000482099
:1004E0008DF8030069462B4800F000FC0120ADF8B0
:1004F000000028208DF803006946264800F0F6FB2E
:1005000008BD10B50121244800F0BFFC2348007845
:1005100058B32348006830B12248006818B1224817
:100520000068012821D10A2000F05CF800201B4956
:1005300008701B48006828B901211C4800F0A5FC80
:10054000012010BD1748006828B90121174800F0A4
:100550009CFC0220F5E714480068012813D1012112
:10056000124800F092FC0320EBE70D4800680128D8
:1005700009D10C480068012805D10B48006810B962
:100580000120064908700121084800F07EFC002087
:10059000D7E70000000801400004300014000020EC
:1005A000340121423C01214200012142000230007D
:1005B00010B504466FF0040000F064F9E11704EB95
:1005C0005171C1F3C701224A11701046007800EB47
:1005D0004001C1EBC0104FF6FF7101EAC0001D4998
:1005E000088010BD01461B4A12884A434FF0E023A1
:1005F0005A6100229A6101221A6100BF4FF0E02285
:10060000106910F0010F02D010F4803FF6D00022E4
:100610004FF0E0231A619A61704701460C4A127844
:100620004A434FF0E0235A6100229A6101221A6185
:1006300000BF4FF0E022106910F0010F02D010F45B
:10064000803FF6D000224FF0E0231A619A61704794
:10065000160000201800002010B54FF4A06000F034
:10066000C1F810BD014600BF704700BF494A12885B
:1006700012F0400FFAD0C2B2464B1B1D1A807047D1
:1006800010B586B00446012144F2050000F0E4FDF7
:100690004FF40070ADF8140003208DF816001820F8
:1006A0008DF8170005A93C4800F020FB4FF480604E
:1006B000ADF8140004208DF8170005A9364800F0A5
:1006C00015FB25208DF8000003208DF801008DF822
:1006D000020001208DF80300684600F088F80194BC
:1006E0000020ADF80800ADF80A00ADF80C00ADF838
:1006F00010000C20ADF80E0001A9264801F065FDA0
:10070000012240F22551234801F0F7FD0121214843
:1007100001F0E7FD06B010BD10B540F225511D48AF
:1007200001F0D0FE10B31B4801F04CFEC4B21B48D0
:10073000007810F0800F2BD11848007810F0400F8F
:100740000CD00A2C03D000201449087020E0134874
:10075000007840F080001149087019E00D2C06D196
:100760000E48007840F040000C49087010E00B483B
:10077000007800F03F000A490C5408480078401CFB
:1007800006490870084600783F2801DD00200870FF
:1007900010BD000000380140000801401C0000208E
:1007A000880000200948804709480047FEE7FEE727
:1007B000FEE7FEE7FEE7FEE7FEE7FEE7FEE7FEE711
:1007C00004480549054A064B7047000069030008C4
:1007D000ED00000828090020280F0020280B002029
:1007E000280B002031490143314A1160704770B530
:1007F000002100230F22C4780CB32D4C246804F48C
:10080000E064C4F5E064210AC1F10403CA404478FD
:1008100004FA03F18478144021430901254C067839
:10082000A155047804F01F050124AC4005786D1132
:100830004FF0E02606EB8505C5F8004109E0047895
:1008400004F01F050124AC401B4D0678761145F8D5
:10085000264070BD194A0A400243154B1B1F1A60FF
:10086000704739B1124A121D12680243104B1B1D0A
:100870001A6006E00E4A121D126882430C4B1B1DC3
:100880001A607047042808D14FF0E021096941F04F
:1008900004014FF0E022116107E04FF0E021096907
:1008A00021F004014FF0E022116170470000FA05C9
:1008B0000CED00E000E400E080E100E080FFFF1FBD
:1008C00001684FF6FE721140016000210160416035
:1008D0008160C1608C49884208D18B4908394968D8
:1008E00041F00F01884A083A51608AE08649143184
:1008F000884208D184490839496841F0F001824AA8
:10090000083A51607DE080492831884208D17E490B
:100910000839496841F470617B4A083A516070E0D7
:1009200079493C31884208D177490839496841F40E
:100930007041754A083A516063E07349503188420A
:1009400008D171490839496841F470216E4A083A62
:10095000516056E06C496431884208D16A490839CF
:10096000496841F47001684A083A516049E06649B3
:100970007831884208D164490839496841F070618A
:10098000614A083A51603CE06049884206D1011F43
:10099000096841F00F01021F116032E05B49143118
:1009A000884208D15949091F096841F0F001574AA6
:1009B000121F116025E055492831884208D153495A
:1009C000091F096841F47061504A121F116018E054
:1009D0004E493C31884208D14C49091F096841F40D
:1009E00070414A4A121F11600BE048495031884259
:1009F00007D14649091F096841F47021434A121F73
:100A00001160704710B50022026847F6F0739A43F0
:100A10000C6A8B6823430C6923434C6923438C691C
:100A20002343CC6923434C6A23438C6A23431A43F0
:100A30000260CB6843600B6883604B68C36010BD85
:100A40000021016041608160C1600161416181619B
:100A5000C161016241628162704721B1026842F066
:100A60000102026004E002684FF6FE731A40026061
:100A700070471AB103680B43036002E003688B43BD
:100A800003607047416070470146486880B2704714
:100A900001460020002211F0805F03D01B4B083B71
:100AA0001A6802E0184B083B1A680A4201D001207C
:100AB00000E00020704710F0805F03D01349091F49
:100AC000086002E01049083948607047014600207C
:100AD000002211F0805F03D00C4B083B1A6802E043
:100AE000094B083B1A680A4201D0012000E00020AF
:100AF000704710F0805F03D00449091F086002E0CE
:100B00000149083948607047080002400804024063
:100B1000002044490860091D0860091D0860091D7E
:100B2000086041483F4914310860704700213D4941
:100B30008279002A3AD00A46126803689A430B4623
:100B40001A600A1D126803689A430B1D1A60027925
:100B500011440A6803681A430A60324A083212686C
:100B600003689A432F4B08331A601A1D12680368F2
:100B70009A432C4B0C331A604279102A0ED11A1F5B
:100B8000126803681A43274B08331A601A1D12684B
:100B900003681A43234B0C331A600DE02149427954
:100BA00011440A6803681A430A6005E00279114497
:100BB0000A6803689A430A60704700210160017166
:100BC0000C2141710021817170471649103109686B
:100BD0000143144A10321160704701460020114A47
:100BE000143212680A4201D0012000E00020704750
:100BF0000C49143108607047014600200022094B5F
:100C00001B6803EA0102074B14331B680B4202D036
:100C10000AB1012000E00020704702491431086049
:100C20007047000000040140FFFF0F0010B50446AC
:100C3000CA48844208D10121042000F027FB00218A
:100C4000042000F023FB46E0C548844208D101217E
:100C5000082000F01BFB0021082000F017FB3AE001
:100C6000C048844208D10121102000F00FFB002170
:100C7000102000F00BFB2EE0BB48844208D101217C
:100C8000202000F003FB0021202000F0FFFA22E0EA
:100C9000B648844208D10121402000F0F7FA002133
:100CA000402000F0F3FA16E0B148844208D1012157
:100CB000802000F0EBFA0021802000F0E7FA0AE043
:100CC000AC48844207D10121801500F0DFFA0021F1
:100CD000A01500F0DBFA10BD10B50121084600F0A8
:100CE000D5FA0021012000F0D1FA10BD2DE9F04124
:100CF000024600250026002000230024002791F84A
:100D000003C00CF00F0591F803C01CF0100F03D0C6
:100D100091F802C04CEA050591F800C0BCF1000F43
:100D200031D0146800202BE04FF0010C0CFA00F3D6
:100D3000B1F800C00CEA03069E4220D183004FF0B8
:100D40000F0C0CFA03F7BC4305FA03FC4CEA04044D
:100D500091F803C0BCF1280F06D14FF0010C0CFA3A
:100D600000FCC2F814C00AE091F803C0BCF1480FBF
:100D700005D14FF0010C0CFA00FCC2F810C0401C69
:100D80000828D1D31460B1F800C0BCF1FF0F34DDE6
:100D9000546800202EE000F1080C4FF0010808FA1A
:100DA0000CF3B1F800C00CEA03069E4221D1830087
:100DB0004FF00F0C0CFA03F7BC4305FA03FC4CEAA6
:100DC000040491F803C0BCF1280F05D100F1080C10
:100DD00008FA0CF8C2F8148091F803C0BCF1480F6F
:100DE00007D100F1080C4FF0010808FA0CF8C2F81E
:100DF0001080401C0828CED35460BDE8F0814FF627
:100E0000FF710180022181700421C1707047024688
:100E1000002093680B4201D0012000E000207047C1
:100E20000146886880B2704702460020D3680B42B2
:100E300001D0012000E0002070470146C86880B260
:100E4000704701617047416170470AB1016100E07C
:100E500041617047C16070474FF480320A4382613C
:100E60008161826182698269704702460020424B3B
:100E700018684FF68073184040EA021008433E4B52
:100E8000186070473D49C8617047F0B50A460023B5
:100E900000240021002500F00046B6F1004F02D1E9
:100EA000354EF16901E0344E7168C0F3034583B2F9
:100EB00000F44016B6F5401F08D121F070612E4EA7
:100EC000766826F070662C4F7E6012E000F4801683
:100ED000B6F5801F06D1032606FA05F4A14341F0BA
:100EE000706106E0460D360103FA06F6B14341F0A3
:100EF000706122B1460D360103FA06F6314300F067
:100F00000046B6F1004F02D11B4EF16101E01A4ECE
:100F10007160F0BD30B500228B071C0F0F2303FA60
:100F200004F2154B08338C1053F824309343124CC1
:100F300008348D1044F8253023468C1053F82430A3
:100F40008C07240F00FA04F423430B4C08348D1053
:100F500044F8253030BD0A49086070470008014058
:100F6000000C014000100140001401400018014035
:100F7000001C014000200140000001400000204210
:100F8000DC002042DD48006840F00100DB490860D9
:100F900008464068DA490840D84948600846006871
:100FA000D8490840D54908600846006820F48020E8
:100FB00008600846406820F4FE0048604FF41F00B7
:100FC00088607047CD49096821F48031CB4A1160AF
:100FD0001146096821F480211160B0F5803F03D0EB
:100FE000B0F5802F0ED106E0C449096841F4803184
:100FF000C24A116007E0C149096841F4A021BF4A13
:10100000116000E000BF00BF704710B5014600222C
:10101000002300204A11012A02D1B84C236806E0BF
:10102000022A02D1B54C236A01E0B44C636A01F094
:101030001F02012494401C4201D0012000E0002046
:1010400010BD38B5002000900024002500BF3120DD
:10105000FFF7DBFF05460098401C00900098B0F5B4
:10106000A06F01D0002DF2D03120FFF7CEFF08B1E4
:10107000012400E00024204638BD014600209F4A9C
:10108000106820F0F80040EAC100106070479E49E7
:101090000860704702460020984B586820F47C1086
:1010A00042EA01031843954B586070479649086619
:1010B000704701460020914A506820F00300084321
:1010C000506070478D48406800F00C007047014642
:1010D00000208A4A506820F0F000084350607047B2
:1010E00001460020854A506820F4E06008435060C3
:1010F000704701460020814A506820F4605040EA61
:10110000C1005060704729B17C4A527A02437B4B40
:101110005A7204E0794A527A8243784B5A72704785
:101120007A490860704701460020744A506820F4EC
:1011300040400843506070470021754A11706F4A63
:1011400082F82010012802D0042808D103E00121F0
:101150006F4A117004E005216D4A117000E000BF74
:1011600000BF70476B49086070476449096A0143D2
:10117000624A11627047674944390860704730B568
:1011800000210022002400235C4D6D6805F00C0155
:1011900021B1042905D0082923D105E05E4D056061
:1011A00022E05D4D05601FE0544D6D6805F470123E
:1011B000524D6D6805F48034022505EB92421CB94E
:1011C000564D554305600BE04C4D6D6815F4003FDE
:1011D00003D0524D5543056002E04F4D5543056025
:1011E00002E04D4D056000BF00BF444D6D6805F045
:1011F000F00109094A4D6B5C0568DD4045603F4DD3
:101200006D6805F4E061090A454D6B5C4568DD4099
:1012100085603A4D6D6805F46051C90A404D6B5CBC
:101220004568DD40C560354D6D6805F44041890B6A
:101230003C4D6B5CC568B5FBF3F5056130BD29B16C
:101240002E4A526902432D4B5A6104E02B4A5269DF
:1012500082432A4B5A61704729B1284A9269024356
:10126000264B9A6104E0254A92698243234B9A6196
:10127000704729B1214AD2690243204BDA6104E068
:101280001E4AD26982431D4BDA61704729B11B4A5D
:10129000D2680243194BDA6004E0184AD2688243EC
:1012A000164BDA60704729B1144A12690243134B96
:1012B0001A6104E0114A12698243104B1A617047A7
:1012C00014494039086070470F49C86470470B499A
:1012D000C87170470948406A40F080700749486209
:1012E000704701460020054A92680A4201D0012059
:1012F00000E00020704701498872704700100240EA
:101300000000FFF8FFFFF6FE00004242D800424214
:10131000201002408004424200127A0000093D0081
:10132000240000203400002010B50446FE4884420A
:1013300008D10121C014FFF7A9FF0021E014FFF735
:10134000A5FFC4E0B4F1804F08D101210846FFF7A2
:10135000AAFF00210120FFF7A6FFB8E0F34884426E
:1013600008D101210220FFF79EFF00210220FFF794
:101370009AFFACE0EE48844208D101210420FFF737
:1013800092FF00210420FFF78EFFA0E0E94884428D
:1013900008D101210820FFF786FF00210820FFF770
:1013A00082FF94E0E448844208D101211020FFF735
:1013B0007AFF00211020FFF776FF88E0DF488442A3
:1013C00008D101212020FFF76EFF00212020FFF728
:1013D0006AFF7CE0DA48844208D101214014FFF71B
:1013E00055FF00216014FFF751FF70E0D54884429B
:1013F00009D10121C804FFF749FF00214FF4002063
:10140000FFF744FF63E0D048844209D10121080579
:10141000FFF73CFF00214FF48010FFF737FF56E045
:10142000CA48844209D101214805FFF72FFF002156
:101430004FF40010FFF72AFF49E0C548844208D165
:1014400001214020FFF72FFF00214020FFF72BFF55
:101450003DE0C048844208D101218020FFF723FFEE
:1014600000218020FFF71FFF31E0BB48844208D1F4
:1014700001218015FFF717FF0021A015FFF713FFCB
:1014800025E0B648844209D101210804FFF7FEFE99
:1014900000214FF48030FFF7F9FE18E0B048844295
:1014A00009D101214804FFF7F1FE00214FF400307B
:1014B000FFF7ECFE0BE0AB48844208D10121880421
:1014C000FFF7E4FE00214FF48020FFF7DFFE10BDA0
:1014D00000220288944B98420ED0994B98420BD030
:1014E000B0F1804F08D0914B984205D0904B984274
:1014F00002D0904B984204D14FF68F731A404B881C
:101500001A438D4B984207D08C4B984204D04FF62B
:10151000FF431A40CB881A4302808B8883850B884F
:101520000385814B98420BD0854B984208D08B4B5A
:10153000984205D08A4B984202D08A4B984201D1FA
:101540000B7A038601238382704770B50024002242
:101550000023058C4FF6FE7635400584028C838887
:10156000048B4FF68F752C40B51E2C400D882C43F4
:10157000751E2A400D892A434D882A436A4DA84288
:101580000BD06F4DA84208D0744DA84205D0744DC1
:10159000A84202D0734DA84213D14FF6F7752A40E6
:1015A0004D892A434FF6FB752A408D882A434FF612
:1015B000FF652B404FF6FF552B408D892B43CD897E
:1015C0002B4383800483CD888586028470BD70B5EB
:1015D000002400220023058C4FF6EF763540058469
:1015E000028C8388048B48F6FF752C404FF6FF452C
:1015F0002C400D884FF6FF7606EA05252C434FF662
:10160000DF752A400D8906EA05152A434D8806EA4A
:1016100005152A43444DA84202D0494DA8421DD188
:101620004FF67F752A404D894FF6FF7606EA05157D
:101630002A434FF6BF752A408D8806EA05152A43CE
:101640004FF6FF352B404FF2FF752B408D8906EA90
:1016500085052B43CD8906EA85052B4383800483CA
:10166000CD880587028470BD70B500240022002358
:10167000058C4FF6FF6635400584028C8388848B89
:101680004FF68F752C404FF6FC752C400D882C437F
:101690004FF6FF552A400D894FF6FF7606EA0525DD
:1016A0002A434D8806EA05252A431F4DA84202D049
:1016B000234DA8421DD14FF2FF752A404D894FF6A8
:1016C000FF7606EA05252A434FF6FF352A408D8826
:1016D00006EA05252A434EF6FF752B404DF6FF75A9
:1016E0002B408D8906EA05152B43CD8906EA0515A1
:1016F0002B4383808483CD888587028470BD70B539
:10170000002200230024058C4EF6FF763540058428
:10171000038C8488828B48F6FF752A404FF6FF457C
:101720002A400D8820E00000002C01400004004009
:1017300000080040000C0040001000400014004071
:1017400000340140004C0140005001400054014071
:1017500000180040001C00400020004000400140F4
:1017600000440140004801404FF6FF7606EA052597
:101770002A434DF6FF752B400D8906EA05352B43AC
:101780004D8806EA05352B43FA4DA84202D0FA4DA2
:10179000A84208D14BF6FF752C408D894FF6FF7695
:1017A00006EA85152C4384808283CD88A0F84050BA
:1017B000038470BD828B4FF2FF331A408283828B89
:1017C0004FF6FF7303EA01231A4382837047F0B593
:1017D0000C461546002200210026078C4EF6FF7CA1
:1017E00007EA0C070784828B018C4FF6FF7707EA24
:1017F000043640F6FF473A404FF6FF7707EA0527E1
:101800003A434FF6FF7707EA03373A43D94FB842D6
:101810000ED0D94FB8420BD0B0F1804F08D0D74F7F
:10182000B84205D0D64FB84202D0D64FB84206D102
:101830004DF6FF77394046F48057394305E047F6C7
:10184000FF57394044F48057394382830184F0BD07
:10185000828B4FF6F3731A408283828B0A43828312
:101860007047F0B50C461546002200210026078C73
:101870004FF6FF6C07EA0C070784828B018C4FF64A
:10188000FF7707EA04264FF60C773A404FF6FF77CA
:1018900007EA03172F433A43B64FB8420ED0B64F6C
:1018A000B8420BD0B0F1804F08D0B44FB84205D049
:1018B000B34FB84202D0B34FB84206D14FF6FF57EC
:1018C000394046F48077394305E04FF2FF573940FD
:1018D00044F48077394382830184F0BD028B4FF258
:1018E000FF331A400283028B4FF6FF7303EA012392
:1018F0001A4302837047F0B50C46154600220021BA
:101900000026078C4FF6EF7C07EA0C070784028B52
:10191000018C4FF6FF7707EA041640F6FF473A407E
:101920004FF6FF7707EA03373A434FF6FF7707EAA8
:1019300005273A438F4FB8420ED08F4FB8420BD095
:10194000B0F1804F08D08D4FB84205D08C4FB842CF
:1019500002D08C4FB84206D14FF6DF77394046F0BF
:101960001007394305E04FF65F77394044F0100720
:10197000394302830184F0BD028B4FF6F3731A40A2
:101980000283028B0A4302837047F0B50C4615466A
:1019900000220021068C4FF6FE773E400684028B23
:1019A000018C4FF60C7632407E1C06EA03162E435D
:1019B0003243704EB0420ED06F4EB0420BD0B0F1F9
:1019C000804F08D06D4EB04205D06D4EB04202D06F
:1019D0006C4EB04206D14FF6FD76314044F0010620
:1019E000314305E04FF6F576314044F001063143CE
:1019F00002830184F0BD70B505460C465D48854202
:101A00000ED05D4885420BD0B5F1804F08D05B48C1
:101A1000854205D05A48854202D05A48854200D1B5
:101A200000E000BF208850B92389A2886188284639
:101A3000FFF7ABFFE1882846FFF79EFF25E02088EF
:101A400004280AD12389A28861882846FFF753FF1A
:101A5000E1882846FFF742FF17E0208808280AD1CE
:101A60002389A28861882846FFF7FBFEE188284683
:101A7000FFF7EEFE09E02389A28861882846FFF778
:101A8000A6FEE1882846FFF795FE70BD2DE9F041DE
:101A900005460C4600260127608808B9022600E0AA
:101AA0000026A088012801D1022700E00127208814
:101AB000A0B92389A28861882846FFF766FFE188DC
:101AC0002846FFF759FF23893A4631462846FFF753
:101AD00012FFE1882846FFF701FF13E02389A2885F
:101AE00061882846FFF707FFE1882846FFF7F6FEE2
:101AF00023893A4631462846FFF747FFE1882846C2
:101B0000FFF73AFFBDE8F0810A884B881A438B88BB
:101B10001A43CB881A430B891A434B891A438B8982
:101B20001A43A0F8442070474FF6FF7181800021CE
:101B30000180C18041800172704700210180418095
:101B40008180C180018141818181C18170470021F3
:101B500001804180012181800021C1800181704785
:101B60000021018041808180C1800181418181818A
:101B700070470000002C0140003401400004004088
:101B800000080040000C004021B1028842F0010230
:101B9000028004E002884FF6FE731A40028070470C
:101BA00031B1B0F8442042F40042A0F8442005E0EE
:101BB000B0F84420C2F30E02A0F8442070471AB1D6
:101BC00083890B43838102E083898B438381704740
:101BD0008182704741EA0203A0F8483070471AB189
:101BE00083890B43838102E083898B438381704720
:101BF00001894FF6F8721140018170470A460021B1
:101C000001894FF68F73194011430181704730B538
:101C100004460D4629462046FFF7F0FF208940F094
:101C20000700208130BD2DE9F04104460D461646DF
:101C30001F46602D06D13B46012231462046FFF764
:101C40005AFE05E03B46012231462046FFF79DFE45
:101C500029462046FFF7D2FF208940F00700208167
:101C6000BDE8F08130B50C4600210189C9B24FF6BC
:101C7000FF7505EA0325154325432943018130BD3E
:101C80002DE9F04105460E46174698460024434686
:101C90003A4631462846FFF7E5FF2C894FF6F870A3
:101CA000044044F007044FF68F70044044F0700481
:101CB0002C81BDE8F081F0B504460D4616461F465E
:101CC0003B46324629462046FFF7CCFF208940F4A8
:101CD00080402081F0BD0185828270470A46002144
:101CE00001884FF68F731940114301807047F0B59A
:101CF0000C4615461E460021002200230189028B56
:101D0000038C4FF6F877394021434FF6FC473A40B1
:101D100040F201173A434FF6DD773B404FF6FF772D
:101D200007EA06172F433B43018102830384F0BD7A
:101D30000A460021018B4FF68F731940114301832E
:101D400070470A460021018B48F6FF7319404FF691
:101D5000FF7303EA02231943018370470A460021F7
:101D6000818B4FF68F7319401143818370470A4668
:101D70000021818B48F6FF7319404FF6FF7303EA89
:101D8000022319438183704721B1028842F0800207
:101D9000028004E002884FF67F731A400280704789
:101DA00021B1828842F00402828004E082884FF6EA
:101DB000FB731A408280704721B1828842F008028A
:101DC000828004E082884FF6F7731A408280704761
:101DD00021B1828842F00102828004E082884FF6BD
:101DE000FE731A40828070470A460021018B4FF62D
:101DF000F77319401143018370470A460021018B94
:101E00004FF2FF7319404FF6FF7303EA02231943A1
:101E1000018370470A460021818B4FF6F773194002
:101E20001143818370470A460021818B4FF2FF7373
:101E300019404FF6FF7303EA022319438183704769
:101E40000A460021018B4FF6FB73194011430183B1
:101E500070470A460021018B4FF6FF3319404FF6B9
:101E6000FF7303EA02231943018370470A460021E6
:101E7000818B4FF6FB7319401143818370470A46EB
:101E80000021818B4FF6FF3319404FF6FF7303EAB1
:101E900002231943818370470A460021018B4FF6C4
:101EA0007F7319401143018370470A460021018B5B
:101EB000C1F30E014FF6FF7303EA022319430183B6
:101EC00070470A460021818B4FF67F7319401143FA
:101ED000818370470A460021818BC1F30E014FF6C2
:101EE000FF7303EA02231943818370470A460021E6
:101EF000018C4FF6FD7319401143018470470A4667
:101F00000021018C4FF6F77319401143018470478B
:101F10000A460021018C4FF6DF7319404FF6FF731C
:101F200003EA02131943018470470A460021018C19
:101F30004FF67F7319404FF6FF7303EA02131943FC
:101F4000018470470A460021018C4FF6FF53194067
:101F50004FF6FF7303EA02231943018470470A46D0
:101F60000021018C4FF2FF7319404FF6FF7303EA13
:101F700002231943018470470A460021018C4DF663
:101F8000FF7319404FF6FF7303EA023319430184CC
:101F9000704730B5002301248C40A3B2048C9C43CD
:101FA0000484048C02FA01F5ADB22C43048430BDE4
:101FB00030B5002304248C40A3B2048C9C430484D9
:101FC000048C02FA01F5ADB22C43048430BD70B527
:101FD0000346002000241846183001258D40ACB27D
:101FE0001D8CA5431D8409B1082909D100EB6100AE
:101FF000056825F0700505600568154305600EE06D
:102000000D1FC5F34E052844056825F4E04505601D
:1020100005684FF6FF7606EA02263543056070BD77
:1020200021B1028842F00202028004E002884FF6E9
:10203000FD731A400280704721B1028842F0040209
:10204000028004E002884FF6FB731A40028070475A
:1020500021B1828842F08002828004E082884FF6BB
:102060007F731A408280704702884FF6F7731A40D8
:10207000028002880A430280704782884FF68F737D
:102080001A40828082880A438280704702894FF614
:10209000F8731A40028102890A430281704702895B
:1020A0004FF67F731A40028102890A43028170470A
:1020B00081847047818570478186704701877047AA
:1020C00081877047A0F84010704702884FF6FF43A1
:1020D0001A40028002880A43028070470146888EB7
:1020E00070470146088F70470146888F7047014648
:1020F000B1F8400070470146888C70470146088D52
:10210000704702460020138A0B4201D0012000E0F4
:1021100000207047CA430282704730B50246002053
:1021200000230024158A05EA0103958905EA0104C4
:1021300013B10CB1012000E0002030BDCA4302827F
:102140007047000010B50446FB48844209D10121C4
:102150008803FFF79BF800214FF48040FFF796F8C3
:1021600032E0F648844209D101214804FFF79BF888
:1021700000214FF40030FFF796F825E0F048844244
:1021800009D101218804FFF78EF800214FF4802047
:10219000FFF789F818E0EB48844209D10121C8040F
:1021A000FFF781F800214FF40020FFF77CF80BE0E7
:1021B000E548844208D101210805FFF774F80021A1
:1021C0004FF48010FFF76FF810BD2DE9F04786B08F
:1021D00005460E460024A24600BFA1460027B0894E
:1021E00000B100BF2F462C8A4CF6FF700440F088E7
:1021F00004432C82AC894EF6F3100440B088318938
:102200000843718908430443AC81AC8A4FF6FF4010
:102210000440B0890443AC8201A8FEF7B0FFC64871
:10222000874202D1DDF810A001E0DDF80CA0A889FA
:1022300010F4004F08D00AEBCA0000EB0A10316816
:102240004900B0FBF1F807E00AEBCA0000EB0A1006
:1022500031688900B0FBF1F86420B8FBF0F00401AC
:102260002009642101FB1089A88910F4004F08D0CF
:10227000322000EBC900B0FBF1F000F0070004438E
:1022800008E0322000EB09106421B0FBF1F000F00F
:102290000F0004432C8106B0BDE8F0874FF41651BF
:1022A000016000218180C18001810C2141810021D8
:1022B0008181704710B502460020108A4FF2FF035B
:1022C00018400B884C8823438C882343CC882343B5
:1022D0001843108210BD0021018041808180C1809F
:1022E000704721B1828942F40052828104E08289E0
:1022F0004DF6FF731A4082817047F0B50346002403
:10230000002600250020A1F510676A3F00D100BF1C
:102310001846C1F3421401F01F06012707FA06F51B
:10232000012C01D10C3004E0022C01D1103000E06E
:1023300014301AB107682F43076002E00768AF4303
:102340000760F0BD1AB1838A0B43838202E0838A5F
:102350008B4383827047028A4FF6F0731A400282E1
:10236000028A0A430282704782894FF2FF731A4041
:10237000828182890A438281704721B1828942F039
:102380000202828104E082894FF6FD731A40828145
:102390007047028A4FF6DF731A400282028A0A43AC
:1023A0000282704721B1028A42F48042028204E034
:1023B000028A4BF6FF731A4002827047C1F308028B
:1023C0008280704701468888C0F308007047818981
:1023D00041F0010181817047028BD2B20283028BEE
:1023E00042EA012202837047028B02F47F42028399
:1023F000028B0A430283704721B1828A42F0200295
:10240000828204E0828A4FF6DF731A40828270472C
:1024100021B1828A42F01002828204E0828A4FF661
:10242000EF731A408282704721B1828A42F008021B
:10243000828204E0828A4FF6F7731A4082827047E4
:1024400021B1828942F40042828103E08289C2F391
:102450000E028281704721B1828A42F40062828238
:1024600004E0828A4FF2FF731A4082827047828AA8
:102470004FF6FB731A408282828A0A438282704737
:1024800021B1828A42F00202828204E0828A4FF6FF
:10249000FD731A408282704702460020B1F5007F2A
:1024A00000D100BF13880B4201D0012000E00020C2
:1024B000704701F40072B2F5007F00D100BFCA433B
:1024C0000280704770B502460024002300250020DA
:1024D000A1F510666A3E00D100BFC1F3421501F0BC
:1024E0001F03012606FA03F3012D02D1968933401A
:1024F00006E0022D02D1168A334001E0968A33406D
:102500000C12012606FA04F41688344013B10CB1FB
:10251000012000E0002070BD10B500220023A1F5CD
:1025200010646A3C00D100BF0A1201249440A3B297
:10253000DC43048010BD000000380140004400402E
:1025400000480040004C0040005000401FB50121F1
:102550006348FEF79AFC01211520FEF77DFE42F24A
:102560000200ADF80C0048208DF80F0003A95D486B
:10257000FEF7BCFB0120ADF80C0028208DF80F0001
:1025800003A95948FEF7B2FB01210220FEF7C2FC65
:102590000220019000208DF808000C208DF8090021
:1025A00001208DF80A0001A8FEF7C0FA0D210220D3
:1025B000FEF7B0FC4FF40050019000208DF80800A9
:1025C0000C208DF8090001208DF80A0001A8FEF703
:1025D000ADFA00210846FEF79DFC01200190002085
:1025E0008DF8080008208DF8090001208DF80A00F8
:1025F00001A8FEF79BFA07208DF8000002208DF855
:10260000010000208DF8020001208DF803006846CB
:10261000FEF7EDF828208DF8000002208DF801006B
:1026200001208DF802008DF803006846FEF7DFF800
:1026300006208DF8000002208DF801008DF80200C0
:1026400001208DF803006846FEF7D1F81FBD10B5D4
:102650000A20FDF7C7FF0120FEF7CEFA78B100206F
:10266000224908602248D0F8880108B9012000E01A
:102670000020204908604FF47A70FDF7B3FF012075
:10268000FEF7CBFA10BD10B56420FDF7ABFF4FF499
:102690000050FEF7B1FA58B11648006808B9012099
:1026A00000E00020134908604FF47A70FDF79AFFAC
:1026B0004FF40050FEF7B1FA10BD10B56420FDF7DD
:1026C00091FF0220FEF798FA30B100200A49086015
:1026D00041F28830FDF786FF0220FEF79EFA10BD1A
:1026E000000230000010014000080140A00121421A
:1026F00000802242888122429C01214230B589B06B
:1027000005460C4601210220FEF7B3FD01210420FD
:10271000FEF7AFFD01210D20FEF79EFD4FF4807006
:10272000ADF8200004208DF8230008A94D48FEF7DD
:10273000DDFA8020ADF8200018208DF8230003205A
:102740008DF8220008A94748FEF7D0FA4020ADF8DE
:10275000200018208DF8230003208DF8220008A9FE
:102760004048FEF7C3FA4FF48070ADF820001820FF
:102770008DF8230003208DF8220008A93A48FEF7BF
:10278000B5FA4FF40070ADF8200018208DF8230042
:1027900003208DF8220008A93348FEF7A7FAADF808
:1027A0001850ADF814400020ADF81A00ADF816002E
:1027B00005A92E48FEF78CFEADF81850ADF8144070
:1027C0000020ADF81A00ADF8160005A92848FEF75C
:1027D0007FFE7020ADF804000120ADF80600002057
:1027E000ADF80A00ADF80C0001A92048FEF7ADFED7
:1027F00008211E48FFF7F8FA01A91C48FEF7E7FE7A
:1028000008211A48FFF7F9FA01211848FFF7BCFA26
:1028100001211648FFF7B8F97020ADF80400012037
:10282000ADF806000020ADF80A00ADF80C0001A9D3
:102830000F48FEF719FF08210D48FFF7EBFA01A931
:102840000B48FEF75CFF08210948FFF7ECFA01216D
:102850000748FFF799FA01210548FFF795F909B0F4
:1028600030BD000000080140000C014000040040A1
:10287000000800407FB504460D4601210220FEF706
:10288000F8FC41F28830ADF8080041F61F40ADF881
:1028900004000020ADF80A00ADF8060001A91748B1
:1028A000FEF716FE012241211448FFF788F91D208A
:1028B0008DF8000000208DF8010003208DF8020043
:1028C00001208DF803006846FDF791FF01210B48B8
:1028D000FFF75AF97FBD10B501210848FFF71DFC2D
:1028E00058B101210548FFF729FC0548006808B9DF
:1028F000012000E000200249086010BD00040040F3
:102900008881224270B504460025A148008810F451
:10291000004F0BD000209E490988C1F30E019D4A4B
:1029200050542146104601F0C3F80546284670BDB4
:102930002DE9F04106460D46144600270020944933
:102940000880314694A000F0E6FAE5B1DCB113E06E
:102950000A20FDF747FE8E48008810F4004F0BD088
:102960002846FFF7CFFF20B129468DA000F0DCFEFE
:1029700006E0002086490880601E80B20400E7D18E
:1029800000BF04B901273846BDE8F08110B53222F6
:1029900086A187A0FFF7CCFF18B988A000F0C4FE7D
:1029A00002E089A000F0C0FE142280A18BA0FFF7F6
:1029B000BFFF10B98BA000F0B7FE4FF47A70FDF79F
:1029C00011FE89A000F0B0FE8948036889488AA1F9
:1029D0000268204600F0B4FE02E08CA000F0A4FEE5
:1029E00040F6B8328FA12046FFF7A2FF0028F4D1AD
:1029F0008FA000F099FE14226CA18EA0FFF798FF23
:102A00008F4803688F4890A10268204600F098FE26
:102A100002E094A000F088FEC82264A12046FFF7DF
:102A200087FF0028F5D195A000F07EFE10BD2DE9AE
:102A3000F04106460D461446002700205449088000
:102A4000314694A000F067FAC5B1BCB10FE00A208E
:102A5000FDF7C8FD4E48008810F4004F07D0284607
:102A6000FFF750FF00B106E0002049490880601ED2
:102A700080B20400EBD100BF04B901273846BDE89D
:102A8000F08110B5C82249A183A0FFF751FFC820EB
:102A9000FDF7A8FD642245A183A0FFF7C8FF10BD84
:102AA00010B504463A48008810F4004F0ED00020BC
:102AB00037490988C1F30E01364A5054114675A0B2
:102AC00000F032FE14B100203149088010BD10B56D
:102AD00000BF7748008810F0400FFAD02B207449CF
:102AE000091D08800F20FDF77DFD00BF704800889C
:102AF00010F0400FFAD02B206D49091D08800F20DF
:102B0000FDF770FD00BF6A48008810F0400FFAD052
:102B10002B206749091D08804FF4FA70FDF762FD0C
:102B2000142222A163A0FFF703FF10BD10B5FFF729
:102B3000CEFF08B1002010BD32225FA15FA0FFF7D9
:102B4000F7FE62A0FFF7DEFE68B164A0FFF7DAFED1
:102B500048B166A0FFF7D6FE28B168A0FFF7D2FE05
:102B600008B10020E7E70120E5E770B5FFF7AFFF08
:102B700008B1002070BD32224FA150A0FFF7D8FE4F
:102B800062A0FFF7BFFE05462C782046F2E7000062
:102B900084000020C804002025730D0A00000000F6
:102BA00061636B3A25730D0A000000004F4B000073
:102BB00041542B43574D4F44453D3100737563637A
:102BC0006573730A0000000063776D6F6465206EA3
:102BD0006F7420737563636573730A0041542B52DD
:102BE00053540000320A0000322D330A0000000066
:102BF000480000204000002041542B43574A4150D8
:102C00003D222573222C22257322000063616E6E03
:102C1000277420636F6E6E65637420776966690A36
:102C2000000000005749464920474F5420495000B2
:102C3000330A000041542B4349504D55583D300054
:102C4000380000203C00002041542B43495053548D
:102C50004152543D22544350222C222573222C25CC
:102C60007300000063616E6E277420657374616287
:102C70006C697368205443500A00000077696669E4
:102C800020616E6420746370207375636365737371
:102C90000A0000002573000041542B43495053455E
:102CA0004E443D3400000000343434340000000051
:102CB00000440040415400003A00000041542B43BE
:102CC0004950535441545553000000002B43495080
:102CD0005354415455533A30000000002B4349509F
:102CE0005354415455533A31000000002B4349508E
:102CF0005354415455533A32000000002B4349507D
:102D00005354415455533A34000000002B4349506A
:102D10005354415455533A0010B5044644B1002170
:102D20009548FFF7C5F901219348FEF72DFF03E011
:102D300000219148FEF728FF10BD10B540F2255143
:102D40008E48FFF7BFFB08B38C48FFF73BFBC4B2CC
:102D50008B480088B0F5806F12DA00218648FFF7B3
:102D6000A7F98748008810B90120FFF7D5FF8448EC
:102D700001880088401C824A10808248445405E043
:102D80007F48008840F400407D49088010BD7FB531
:102D900005460C4601210420FEF76BFAADF80450FD
:102DA000ADF800400020ADF80600ADF8020069461D
:102DB0007148FEF78DFB012211466F48FEF7FFFEBA
:102DC0001E208DF80C0001208DF80D0002208DF8DA
:102DD0000E0001208DF80F0003A8FDF708FD7FBD50
:102DE00070B58CB006460C46154601210846FEF724
:102DF00026FA3046FDF764FD0194029510200390F9
:102E000000200490059080200690002007900890F4
:102E100009904FF480500A9000200B9001A9304691
:102E2000FDF7F0FD0CB070BD10B586B00446012171
:102E30000420FEF711FA01214804FEF71AFA4F4860
:102E4000FFF780F90420ADF8100003208DF8120080
:102E500018208DF8130004A94B48FDF747FF082000
:102E6000ADF8100004208DF8130004A94648FDF7C2
:102E70003DFF00940020ADF80400ADF80600ADF869
:102E80000800ADF80C000C20ADF80A0069463B487C
:102E9000FFF79BF9012280213848FFF753FA3B4A9C
:102EA0003649091D3A48FFF79BFF01213348FFF7D8
:102EB00018FA012240F225513048FFF71EFA262069
:102EC0008DF8140002208DF8150003208DF81600EF
:102ED00001208DF8170005A8FDF789FC41F61F4178
:102EE00040F2E730FFF753FF002025490880FFF745
:102EF00013FF06B010BD70B504460D4600212046F4
:102F0000FDF7ABFD29462046FDF7BCFD012120461B
:102F1000FDF7A3FD70BD0FB438B505A800901B48A0
:102F2000009A049900F0EEFB0020009000BF1848C2
:102F3000FDF7AAFD0028FAD1144800F0CBFDC4B279
:102F400021461348FFF7D7FF38BC5DF814FB10B5D6
:102F500001210948FFF7E1F860B10948008840F411
:102F600000400749088001210348FFF7E7F80020E7
:102F7000FFF7D2FE10BD00000008004000440040F2
:102F800084000020C804002000080140C800002080
:102F90008000024070B505460C4600F0EBF9D020E9
:102FA00000F08CFA00F021FA18B100F001FA0120CB
:102FB00070BD284600F082FA00F017FA204600F0B3
:102FC0007DFA00F012FA18B100F0F2F90120EFE7F3
:102FD00000F0EEF90020EBE770B504460025BC2CAC
:102FE00001DB012510E0622C01DB02250CE02A2C1C
:102FF00001DB032508E0142C01DB042504E00A2C86
:1030000001DB052500E0062529461A20FFF7C2FF4F
:1030100070BD70B50446B4F57A7F01DD4FF47A7463
:10302000042C00DA04244FF47A7090FBF4F0401E74
:10303000C5B229461920FFF7ADFF0546264604EB29
:10304000D671C1F34F00FFF7C7FF70BD70B50446DE
:1030500000F090F9D02000F031FA00F0C6F92046D7
:1030600000F02CFA00F0C1F900F084F9D12000F052
:1030700025FA00F0BAF9002000F04AFA054600F0FF
:1030800097F9284670BD10B50446E006010E1C20D5
:10309000FFF780FF10BD10B50446E006010E1B20AF
:1030A000FFF778FF10BD10B500F04BF980216B20C1
:1030B000FFF770FF6420FDF795FA00216B20FFF702
:1030C00069FF0320FFF7E7FF0020FFF7DCFF322056
:1030D000FFF79FFF00213820FFF75CFF00216A20E7
:1030E000FFF758FF00212320FFF754FF80213720EE
:1030F000FFF750FF7520FFF7A9FF0446682C0BD19E
:1031000001216B20FFF746FF00216C20FFF742FFF3
:103110003220FFF77EFF01E0012010BD0020FCE718
:103120002DE9F04106460F4614461D4600F022F9EF
:10313000002141EA4601C8B200F0C0F900F055F99B
:1031400020B100F035F90120BDE8F081384600F0EB
:10315000B5F900F04AF900F00DF9012101EB460143
:10316000C8B200F0ABF900F040F90DE0012C04D139
:10317000002000F0CDF9287003E0012000F0C8F92C
:103180002870601EC4B26D1C002CEFD100F010F945
:103190000020D9E72DE9F84F6B4602224121682033
:1031A000FFF7BEFF9DF801009DF8001040EA0120E6
:1031B0000FFA80FA504602F041F880460022554B43
:1031C00001F0E4FE0646544A544B01F037FE044633
:1031D00001F002FE83465249584602F0A1F9044626
:1031E00002F082F900B2BDE8F88F2DE9FC410446F7
:1031F0000D4616466B46062243216820FFF790FFD6
:103200000746BFB99DF801009DF8001040EA012073
:1032100000B220809DF803009DF8021040EA0120D2
:1032200000B228809DF805009DF8041040EA0120B6
:1032300000B230803846BDE8FC812DE9FC410446EF
:103240000D4616466B4606223B216820FFF768FFB5
:103250000746BFB99DF801009DF8001040EA012023
:1032600000B220809DF803009DF8021040EA012082
:1032700000B228809DF805009DF8041040EA012066
:1032800000B230803846BDE8FC812DE9F0410546AA
:103290000E461746984600F06DF8002141EA4501B8
:1032A000C8B200F00BF900F0A0F820B100F080F8EF
:1032B0000120BDE8F081304600F000F900F095F8FB
:1032C00000240CE018F8040000F0F8F800F08DF885
:1032D00018B100F06DF80120EBE7601CC4B2BC42ED
:1032E000F0DB00F065F80020E3E70EB56A4601A9BF
:1032F00002A8FFF77AFFBDF90030BDF90420BDF93F
:10330000081008A000F010FA40F6B830FDF76AF98E
:103310000EBD000000407540A4703D0AD7434240F6
:103320000000C8426779726F783A202564202564CE
:10333000202564200D0A000010B50220FDF76DF96C
:1033400010BD08B501211020FDF786FF4FF4C050D5
:10335000ADF8000010208DF8030003208DF8020066
:1033600069468248FDF7C2FC4FF4C0517F48FDF723
:1033700068FD08BD10B57D48406820F470407B4969
:1033800048600846406840F4405048600120784951
:1033900008607849C1F8B001FFF7CEFF00207449FA
:1033A0000860FFF7C9FF00207249C1F8B00110BDE5
:1033B00010B56E48406820F470406C49486008467B
:1033C000406840F44050486000206B4908606949FB
:1033D000C1F8AC01FFF7B0FF0120674908606549FB
:1033E000C1F8AC01FFF7A8FF10BD10B500245F487D
:1033F000406820F470405D4948600846406840F4E9
:103400000040486001205A490860FFF795FF0120FD
:103410005849C1F8B001FFF78FFF07E0601CC4B244
:10342000FA2C03DDFFF7C4FF012010BD53480068EC
:103430000028F3D15049086000BFF6E710B500201E
:103440004D4908604948406820F470404749486049
:103450000846406840F4405048604FF0000045493D
:10346000C1F8AC01FFF768FF012043490860FFF78E
:1034700063FF00203F49C1F8B00110BD10B5002026
:103480003D4908603948406820F470403749486039
:103490000846406840F4405048604FF0010035490C
:1034A000C1F8AC01FFF748FF012033490860FFF77E
:1034B00043FF00202F49C1F8B00110BD70B504468C
:1034C0002A48406820F4704028494860084640680F
:1034D00040F440504860002027490860054614E049
:1034E000E009234908604FEA44604FEA10644FF056
:1034F00001002049C1F8B001FFF71EFF00201E495E
:103500000860FFF719FF681CC5B2082DE8DB70BD25
:1035100070B5054600241548406820F470401349F2
:1035200048600846406840F400404860002613E0C8
:10353000002011490860FFF7FFFE01200D49C1F886
:10354000B0016006040E0D48006808B1601CC4B2EA
:10355000FFF7F2FE701CC6B2082EE9DB15B9FFF7C3
:103560008DFF01E0FFF76AFF204670BD00100140AB
:10357000AC01224200002242B00122422C01224230
:1035800008B54FF4E060FDF72DF91C208DF8000020
:1035900000208DF8010003208DF8020001208DF835
:1035A00003006846FDF723F908BD0EB50121084662
:1035B000FDF75FFE4FF08040FDF7B6FE4FF6FF705F
:1035C000ADF8040040F26710ADF800000020ADF83F
:1035D0000600ADF8020069464FF08040FDF778FF25
:1035E00001218807FEF796FD0EBD000008B50121F8
:1035F0001020FDF731FE4FF48070ADF80000102070
:103600008DF8030003208DF8020069463448FDF769
:103610006DFB4FF40070ADF8000004208DF803003E
:1036200069462F48FDF762FBFFF7BFFF08BD10B5E5
:103630004FF08040FEF75FFD00EB800000EB0010D4
:1036400040004FF4FA6190FBF1F02649088010BD6C
:1036500070B54FF480712248FDF7F3FB1420FCF79E
:10366000DCFF4FF480711E48FDF7EDFB00BF4FF407
:1036700000711B48FDF7CBFB0028F8D0012188071B
:10368000FEF782FA00BF4FF400711548FDF7BFFB4B
:103690000028F8D100214FF08040FEF775FAFFF7BF
:1036A000C6FF00214FF08040FEF702FD0D4805885F
:1036B0000488E01704EB10600012A4EB0022E81766
:1036C00005EB1060011208A000F02EF870BD05484F
:1036D0000188C81701EB1060C0F307207047000095
:1036E00000100140860000200D0ACBF9B2E2BEE0D6
:1036F000C0EBCEAA3A2564256420636D0D0A000054
:10370000704700001CB50C46064B7B446946009090
:10371000204600F08AFA04460020694600F098FA34
:1037200020461CBD430500000FB4044910B503AA90
:10373000029800F0A9FA10BC5DF814FB20000020EC
:103740000FB41CB5084B06AA7B4469460090059847
:1037500000F06BFA04460020694600F079FA204632
:103760001CBC5DF814FB00000505000070B50446A4
:1037700085690068C10601D5302600E02026C00713
:1037800008D070BDD4E9012130469047206A00F18D
:10379000010020626D1EF5D570BD70B504468569C7
:1037A0000078C00708D170BDD4E9012120209047DE
:1037B000206A00F1010020626D1EF5D570BD70B564
:1037C0000C460546012A05D02878800600D5EA690E
:1037D000002302E0012305E05B1C934202D2E05C7F
:1037E0000028F9D1A869E618C01AA861286A184407
:1037F00028622846FFF7BAFF04E0D5E9012114F852
:10380000010B9047B442F8D32846FFF7C6FF70BDBE
:103810002DE9F0410646002410687529314616A5A9
:1038200011D000F07AF9002803DAC0F1000013A5E6
:1038300007E031688A0701D511A502E0490704D5E0
:1038400010A5012401E000F071F900210A2306F11E
:10385000240707E0B0FBF3F203FB1200303078548A
:103860001046491C0028F5D123462A463046BDE8BB
:10387000F04100F064B90000000000002D000000DD
:103880002B00000020000000F0B40D46018809055F
:1038900002D5234C7C4402E0214C7C440E340021B0
:1038A00000F124060BE002F00F074FEA1212E75D69
:1038B00042EA03724FEA1313775401F1010152EA0D
:1038C0000307F0D102780023120704D5702D06D02B
:1038D00009B1113402232246F0BC00F030B9103493
:1038E0000123F8E770B504460D462146106800F044
:1038F0001DF9024629462046BDE870400023C3E773
:10390000D21D22F00703D3E90023BDE70368126844
:1039100043F0200303600823C3610023B4E70000E1
:10392000241E00002DE9F05F894604464FF0000A8E
:10393000DFF878B1FB44C0F820A02046E168884752
:10394000002875D0252806D0D4E901219047206AA7
:10395000401C2062F1E700265F462046E168884768
:103960002028054608DB312D06D207EB050010F8AC
:10397000200C08B10643F0E7B00701D526F0040695
:10398000C4F81CA00027C4F818A02A2D09D0284686
:1039900001F0EFF938B304EB8708303DC8F8185050
:1039A00019E059F8041B204604EB87029161E16895
:1039B0008847012F054618D1E069002820DA26F053
:1039C00020061DE0D8F8180000EB800005EB400051
:1039D0003038C8F818002046E1688847054601F0ED
:1039E000C8F90028EED1012F0AD02E2D08D120468B
:1039F000E16888477F1C0546022F46F02006C4DB9D
:103A0000A069002803DA404246F00106A061F007F1
:103A100001D026F010066C2D0BD0682D09D04C2D4E
:103A200039D06A2D35D0742D35D07A2D33D016E0AB
:103A300038E0E1682F4620468847B842054609D15C
:103A40006C2F26D04FF48060E168064320468847FB
:103A5000054604E06C2F1AD04FF4807006430DB376
:103A6000A5F14100192802D8203546F400664A46DF
:103A70002946204626604E46FCF772FB80B101289D
:103A80000BD0F61D26F0070000F1080955E740208D
:103A9000E4E78020D8E70020D6E706F104094CE7E8
:103AA000284651E7206ABDE8F09F0000AC1D0000E9
:103AB00030B505460B462A4613F8014B12F8010BA8
:103AC00008B1A042F8D01CB1002802D06D1CF1E76B
:103AD000284630BD10B5431C02E010F8011B71B13F
:103AE0008107FAD14FF0013202C88C1A8C4314EAD4
:103AF000C211F9D0C01A0A0603D0C01E10BDC01AE8
:103B000010BD0A0401D0801E10BD0902FCD0401E69
:103B100010BD704770477047704709684A0501D566
:103B200040B27047C905FCD500B2704709684A0524
:103B300001D5C0B27047C905FCD580B270472DE9E8
:103B4000F0470D4699469246044600F12408016864
:103B5000880604D5E06921F01001216000E0012011
:103B6000A84202DDA0EB050700E00027A16907EBF2
:103B7000050202EB0900A1EB0000A0612078C0065D
:103B800002D42046FFF7F2FD002608E0D4E9012127
:103B90001AF806009047206A401C761C20624E45A9
:103BA000F4DB2078C0060AD52046FFF7DFFD06E0EB
:103BB000D4E9012130209047206A401C2062381E41
:103BC000A7F10107F4DC07E0D4E9012118F80500AA
:103BD0009047206A401C2062281EA5F10105F3DCF5
:103BE0002046FFF7DAFD2078000602D50220BDE866
:103BF000F0870120FBE711680268006A530501D5D0
:103C000008700BE0D30501D5088007E0130603D543
:103C1000C217C1E9000201E05206086001207047A6
:103C200001694A1C02610878704700B58FB0CDE980
:103C300001310021059105497944CDE90310114670
:103C40006846FFF76FFE0FB000BD0000E5FFFFFF05
:103C50000A6802F8010B0A60704710B5436913B196
:103C6000AFF3008001E0FFF7AAFD012010BD12783C
:103C700000F124010A7000224A700122EDE7116868
:103C80004FF0FF32E9E70000074B70B50D467B446B
:103C9000FFF7CBFF0446284600F049FB10B14FF078
:103CA000FF3070BD204670BDD9C9FFFF2DE9FF5F11
:103CB00015468A460446DFF8AC80F8440027D8E968
:103CC00000103E46CDE9001011E03AF816106A46A1
:103CD00002A800F030FB411C07D02178890603D5EB
:103CE000E269391891420ED8074406F1010620789E
:103CF000800602D5E069B84205DDAE42E5DB3AF860
:103D000016000028E1D1A069C01BA0612046FFF782
:103D10002DFDD8E90010CDE90010002016E03AF89A
:103D200018106A4602A800F006FB8146401C0BD022
:103D300000250DF1080B05E0D4E901211BF8050071
:103D400090476D1C4D45F7D308F10100B042804605
:103D5000E5DB206A384420622046FFF71EFDBDE8FF
:103D6000FF9F00003A1A00002DE9F0418046D21D65
:103D700022F007020025D2E90002F52914A612D08C
:103D8000002A06DA0023D0EB030063EB020211A63F
:103D900008E0D8F800108B0701D50FA602E049070C
:103DA00001D50EA601251146002408F1240704E0E0
:103DB00000F052F830323A55641C50EA0102F7D153
:103DC0002B46324621464046BDE8F041FFF7B7BEDC
:103DD000000000002D0000002B000000200000006B
:103DE00030B4002100F124040CE002F0070505F1D5
:103DF00030054FEAD20242EA4372655401F10101F3
:103E00004FEAD30352EA0305EFD10468002310A25E
:103E1000250708D504F020040C4304D0C46901230D
:103E20000CA2641EC46130BCFFF789BE10B5044605
:103E300021461068FFF77AFE02462046BDE8104092
:103E40000023CDE7D21D22F00701D1E90023C7E707
:103E5000000000003000000030B5B0F10A024FEA67
:103E6000900E71F100034EEA817EB0EB0E0061EB23
:103E700091014FEA101E4EEA017E10EB0E0041EB5D
:103E800011114FEA102E4EEA016E10EB0E0041EBBD
:103E900011214FEA104E4EEA014E10EB0E0041EB9D
:103EA0001141401841F100014FEAD00040EA417051
:103EB0004FEAD10110EB80054FEA810444EA907487
:103EC00044EB01046D1944EB0404521BA3414FF071
:103ED000000348BF0A3200D530BD401C41F100014B
:103EE00030BD70472DE9FF4F0C461E464FF0FF379F
:103EF0008BB0D2E90001DDF860800A908A46C1F3F8
:103F00000A5505B93D46002108464FF00000BAF1B8
:103F1000000F00F4400005DA00EB80004FF4400190
:103F200001EA50004FEA9059B9F1010F00DDB9469E
:103F30000A9850EA4A000ED044F61050A5F2FF3518
:103F400045432F14B8F1000F1ED07542291E1EDD07
:103F5000C9F100021CE0B8F1010F4FF0000001D0E0
:103F6000302103E0F24305E02154401CB042FBDB6A
:103F700030460022002121540B99C1F80880C1E984
:103F800000200FB0BDE8F08FBD1B6D1CDEE74A4678
:103F900000DA694206A800F065FA06AB07CB03AB6E
:103FA00007C350460A9900F015FB8DE80700A0F5FD
:103FB00000501F3800900398002D09DD42F21F01C8
:103FC0004A46084403A90390684600F074FD08E0DF
:103FD000A0F500504A461F3803A90390684600F038
:103FE0007EFD8DE807000004000C03D04FF0FF3089
:103FF000410800E01046B8F1000F03D00022009203
:1040000015461FE0751E06D4FFF726FF02F13002A9
:1040100062556D1EF8D5B3460122084302D0002236
:104020007F1C04E02078302801D100227F1E002A66
:10403000099787D01DE0112D07DAFFF70DFF303209
:1040400062556D1C50EA0102F5D108430FD10021E1
:10405000681E05E0235C625C6354491C2254401EC8
:104060008142F7DBAB46A81B401E099001E0009897
:1040700048B1002004F80B000B98099AC0F808809A
:10408000C0E9002B7DE711264FF000085AE72DE923
:10409000F04F88460446D21D22F0070191B0D1E9C5
:1040A0000001CDE90A0100F050FE02460B98C00F56
:1040B00001D02D2007E02068810701D52B2002E0E8
:1040C000202101EAC000032A099001D0072A05DB5C
:1040D00003464146204600F085F90FE1207880062E
:1040E00001D5E06900E00620B8F1650F814606D0F1
:1040F000B8F1660F18D0B8F1670F72D132E0002026
:10410000B9F1110F009001DB112301E009F1010366
:104110000AAA01A90CA8FFF7E5FEDDE90C7000264C
:1041200009F10105834648E001204B4600904FF01D
:1041300000470AAA01A90CA8FFF7D4FEDDE90DB0DB
:104140000C995D46002618B909F1010001EB000544
:10415000B9EB050003D4C0F1FF3609F10105A5EB69
:1041600009002BE0B9F1010F01DA4FF0010900203D
:10417000B9F1110F0090484601DD112300E003461C
:104180000AAA01A90CA8FFF7ADFEDDE90C704D46A7
:1041900000268346207800070AD4AB4500DA5D4646
:1041A00001A8012D04DD411911F8011C302907D0A7
:1041B0004F4502DA17F1040F04DA0120824610E0BD
:1041C0006D1EEEE7002F02DCED1B3E4403E0781C81
:1041D000A84200DD0546A7EB060000F1010A4FF0FA
:1041E00000472078000703D4AA4501DB4FF0FF3ACF
:1041F0000021B7F1004F0DF143088DF8431023D093
:1042000002202B23002F01DA7F422D234FF00A0CCE
:10421000011EA0F1010000DC4FB197FBFCF10CFB8B
:1042200011720F4602F1300208F8012DF0E7A8F1F3
:10423000010003702188090501D5452100E06521B1
:10424000A0F1010800F8011C09980FA9A1EB0807CB
:1042500007F1070700B1012000EB050101EBEA704F
:10426000A1693844A1EB0000A0F10100A061207811
:10427000C00602D42046FFF779FA099830B1D4E994
:1042800001219047206A00F1010020622078C006D9
:1042900020D52046FFF76AFA1CE0002E04DBB34568
:1042A00002DD01A8805D00E03020D4E901219047C3
:1042B000206A761C401CBAF1010A20620AD100F083
:1042C0008DF8C0680168405CD4E901219047206AFC
:1042D000401C2062281EA5F10105DEDC07E0D4E9C0
:1042E000012118F8010B9047206A401C2062381EFB
:1042F000A7F10107F3DC2046FFF74FFA022011B0C7
:1043000040E610B5436913B1AFF3008001E0FFF759
:10431000CDFC012010BD128800F12401828400220E
:10432000C2840122EDE711684FF0FF32E9E7007B1C
:1043300000F08000704770B516460C46054600F048
:1043400045F8036893F80101012806D0FF2C0FD827
:10435000185D68B101202C7070BDD3F8070132469A
:10436000214603442846BDE8704003F2071318476E
:104370004FF0FF3070BD000000487047C8080020B3
:104380007546FFF7F9FFAE4605006946534620F033
:104390000700854618B020B5FCF712FABDE82040AA
:1043A0004FF000064FF000074FF000084FF0000BF1
:1043B00021F00701AC46ACE8C009ACE8C009ACE8A4
:1043C000C009ACE8C0098D467047000010B500F088
:1043D00005F8001D10BD00BFD5090000004870475A
:1043E000E80800202DE9F0411F4604460326016835
:1043F000072A01F4006004DB08B116A505E016A544
:1044000003E008B115A500E015A521F0100020601B
:10441000A069C01EA0610FB1401EA0612046FFF739
:10442000A5F94FB1D4E9012138469047206A401CD4
:104430002062C01C206206E0206AFAE7D4E901216C
:1044400015F8010B9047761EF8D22046FFF7A5F924
:10445000BDE8F0814E414E006E616E00494E46004F
:10446000696E66002DE9F047814616468AB03548E8
:104470007844D0E9002380680092CDE901303148CA
:1044800078440C38D0E90223006903924FF03702D8
:10449000CDE9043041F69B30014491FBF2F0A0F1EC
:1044A000800502FB10141B3C02D56442012000E091
:1044B0000020DFF890A080460027FA44AAF1C60A3F
:1044C0000DE0E00709D03246684607EB47010AEBEA
:1044D000810100F004FB8DE8070064107F1C002CB4
:1044E000EFD1184F7F44B43F17E0E80713D007EB34
:1044F00004100DF1180A90E80E00AAE80E00C0683A
:10450000F04201D198190890324606A903A800F09C
:10451000E6FA03AB07C36D10641C002DE5D13246EB
:104520006946B8F1000F03A802D000F0C4FA01E018
:1045300000F0D5FAC9E90001C9F808200AB0BDE8C1
:10454000F0870000081300000446AFF30080204607
:10455000FBF769FE4FF0013C50F8042B51F8043B87
:104560009A4221D1A2EB0C03934313EACC1317D147
:1045700050F8042B51F8043B9A4215D1A2EB0C03DE
:10458000934313EACC130BD150F8042B51F8043B9E
:104590009A4209D1A2EB0C03934313EACC13DBD06C
:1045A0004FF00000704700BFD01A01BAB1FA81F194
:1045B00001F0180122FA01F0CB40C1F12001DBB279
:1045C000C0B2C01A2CFA01F3D11A914311EAC311F7
:1045D000E6D170475FEA400C08BF91F0000F4FEA48
:1045E0008C234FEAC12243EA51514FEA1C5018BFB5
:1045F00000F5F0404FEA300018BF41F000415FEA9B
:104600006C5C00F02980BCF1FF3F08BF40F08040A7
:104610007047130C06BF12044FF0100C4FF0000C43
:10462000130E04BF12020CF1080C130F04BF120189
:104630000CF1040C930F04BF92000CF1020CD30F89
:1046400004BF52000CF1010C11464FF00002A0F122
:104650001F00A0EB0C00704711F0004F08BF70471F
:1046600031F000413FF4D5AF0B0C06BF09044FF009
:10467000100C4FF0000C0B0E04BF09020CF1080CDB
:104680000B0F04BF09010CF1040C8B0F04BF890050
:104690000CF1020CCB0F04BF49000CF1010CCCF162
:1046A0002003A0EB0C0022FA03F302FA0CF241EA19
:1046B000030100F10100704720F07F4C80EA030005
:1046C00023F07F47ACEB070303F57C5300F0004079
:1046D00003F1FF032DE980494FEA154B09B44FEA76
:1046E000144325EA0B4E24EA03480FF2042606EB96
:1046F000132749083E785FEA320203FB0667C7F5D5
:10470000000707FB06F64FEA54374FEAD64606F194
:10471000020607FB066CCCF1005C4FEA1C472CEA52
:10472000074C07FB06F40CFB06F504EB15464FEAB5
:10473000961634BF00204FF000404FEAD13706FBF9
:1047400007FC4FEA1C4C0CFB0BF7D21B03FB0CF7CE
:1047500061EB07010CFB0EF7B0EB074072EB174261
:104760000CFB08F734BFA2EB0742B2EB074261EB48
:1047700017414FEA0C444FEA910706FB07FC4FEA4A
:104780001C4C0CFB0BF7B0EBC74072EB573203FB32
:104790000CF734BFA2EBC742B2EBC74261EB573113
:1047A0000CFB0EF7B0EBC70072EB57720CFB08F76F
:1047B00034BFA2EBC702B2EBC70261EB5771039F94
:1047C0004FEA816141EA921104EBCC044FEAD13700
:1047D0004FEA826206FB07FC42EA90124FEA8060D1
:1047E0004FEA1C4C0CFB0BF7D21B03FB0CF761EBE5
:1047F00007010CFB0EF7B0EB074072EB17420CFB06
:1048000008F734BFA2EB0742B2EB074261EB174156
:104810004FEA8C554FEA910704EB9C2406FB07FCFA
:104820004FEA1C4C0CFB0BF7B0EBC74072EB573256
:1048300003FB0CF734BFA2EBC742B2EBC74261EBFC
:1048400057310CFB0EF7B0EBC70072EB57720CFB45
:1048500008F734BFA2EBC702B2EBC70261EB577196
:1048600015EB4C254FEA816141EA92114FEA8262D1
:104870004FEAD13742EA901206FB07FC44F10004EC
:104880004FEA80604FEA1C4C0CFB0BF7D21B03FB7A
:104890000CF761EB07010CFB0EF7B0EB074072EB76
:1048A00017420CFB08F734BFA2EB0742B2EB0742FA
:1048B00061EB174115EB1C154FEA813141EA92413A
:1048C0004FEA823242EA90424FEA80304FEA0C7659
:1048D00044F1000448EA03434EEA0B484FF0000E4F
:1048E000B2EB080C71EB030724BF624639464EEB6E
:1048F0000E0E4FF0000B0018524149414BEB0B0BD1
:10490000B2EB080C71EB03077BF1000B24BF62468E
:1049100039464EEB0E0E4FF0000B00185241494144
:104920004BEB0B0BB2EB080C71EB03077BF1000BAD
:1049300024BF624639464EEB0E0E51EA020718BFFD
:1049400046F0010616EB0E7655F1000254F1000117
:1049500003D5BDE88901BDE80088BDE88901BDE84F
:104960000048B619524141EB0101A3F10103704720
:1049700080807F7E7D7C7B7A79787776767574739C
:10498000727171706F6E6E6D6C6C6B6A6A6968685B
:10499000676666656464636362616160605F5F5EF1
:1049A0005E5D5D5C5C5B5B5A5A5959585857575667
:1049B00056555555545453535252525151505050CC
:1049C0004F4F4F4E4E4D4D4D4C4C4C4B4B4B4A4A1E
:1049D0004A49494948484847474747464646454562
:1049E000454444444443434343424242424141419B
:1049F000002B26D4770021D01CB54FEA370703B42B
:104A00004FF010004FF010014FF000000FBCBDE858
:104A100010400BF1010BBBF1010F08BF5FEA170754
:104A200022BF12F1010211F101014FF0004143F1E7
:104A3000000300F0004043EA00007047F9D3570834
:104A4000DAE746EA064613F1400F4FEA16461FDD45
:104A500013F1200FDFBF16430A46002120335B42CB
:104A6000C8D0C3F1200746EA064602FA07F74FEA24
:104A7000164646EA0706C3F1200722FA03F201FAB6
:104A800007F721FA03F14FF0000342EA0702B1E70A
:104A900046EA020646EA06464FEA164646EA010696
:104AA000BCBF46EA0646360C4FF000034FF000024A
:104AB0004FF000019EE72DE9C048934630B491E8DD
:104AC000380007C831EA400C48BF34EA430C03D52C
:104AD000FFF7F2FDFFF78CFFF0BCBDE800882DE981
:104AE000C048934630B491E8380007C810F0804FB2
:104AF00008BF13F0804F03D100F005F8FFF778FFEF
:104B0000F0BCBDE8008820F07F4780EA030023F076
:104B10007F4C07EB0C03A3F57C5300F00040A3F19E
:104B2000FE0392F0000F00F0B38095F0000F00F04C
:104B300077802DE901494FEA11404FEA144621EAF6
:104B4000004800FB06FC24EA064708FB06F607FBC4
:104B500008F800FB07F718EB06484CEB164C4FEA39
:104B6000124B18EB07484FEA15464CEB174022EA68
:104B70000B4E0BFB06FC25EA06470EFB06F607FB71
:104B80000EFE0BFB07F71EEB064E4CEB164C4FF0E0
:104B900000061EEB074E4CEB174B18EB0B0840F1D1
:104BA000000018EB0E0B58EB000840F100008F1AC4
:104BB0004FF000013CBFC943661B14BFB5EB040CAA
:104BC00000213CBFC943F61B4FEA17444EEA8E0E44
:104BD00027EA04454FEA1C4704FB07622CEA074C0E
:104BE00005FB07F70CFB05F604FB0CFC16EB074670
:104BF00042EB174216EB0C4642EB1C421BEB06063F
:104C000058EB0202414146EA9E0601D5BDE8018902
:104C1000B619524141EB0101A3F10103BDE801893D
:104C20004FEA14454FEA114724EA054621EA074CAA
:104C300005FB07F406FB07F70CFB06F105FB0CFC74
:104C400011EB074144EB17444FEA124711EB0C41BB
:104C500044EB1C4422EA074C05FB07F206FB07F76E
:104C60000CFB06F605FB0CFC16EB074642EB174265
:104C700016EB0C4642EB1C456A1854F1000148BF84
:104C80007047B619524141EB0101A3F1010370478E
:104C900095F0000F37D04FEA11424FEA144721EA4E
:104CA000024624EA074C02FB07F106FB07F70CFB60
:104CB00006F402FB0CFC14EB074441EB17414FEAEE
:104CC000154714EB0C4441EB1C4125EA074C02FB51
:104CD00007F506FB07F70CFB06F602FB0CFC16EBD0
:104CE000074645EB174516EB0C4645EB1C421219DF
:104CF00051F1000148BF7047B619524141EB010123
:104D0000A3F1010370474FEA14454FEA114724EA23
:104D1000054621EA074C05FB07F106FB07F70CFBEC
:104D200006F24FF0000605FB0CFC12EB074241EBCC
:104D3000174112EB0C4251EB1C4148BF70479218CF
:104D400041EB0101A3F101037047490050EAC12082
:104D500018BF04204A0D18BF40F0010040F2FF7256
:104D6000B2EB515F08BF40F00200012808BF0520E8
:104D7000704730380A2801D2012070470020704760
:104D800010B500290AD00878002807D005487844D3
:104D9000FFF7E0FB002801D0002010BD0248784456
:104DA00010BD0000C60A0000BE0A000010B50029B0
:104DB0000AD00878002807D005487844FFF7CAFBD6
:104DC000002801D0002010BD0248784410BD00002A
:104DD000B60A0000AE0A000021F00042A2F16052C3
:104DE000B2F5801F01F0004328BFD2F17F6C0BD9D0
:104DF0005FEA001C43EAC20242EB507018BF7047E2
:104E000028BF20F001007047B2F5801FBCBF1846D4
:104E100070474FEA410C1CF5001F02D2084600F013
:104E200046BC70B500F021FA00000089FFF7F6BF1C
:104E30004FF00040A0F580007047000010B591EAE7
:104E4000030F48BF83F0004300F16C82841A71EBBA
:104E5000030C05D2121943EB0C03001B61EB0C0190
:104E6000DFF824E14FEA1154A4EB135C1EEA430F70
:104E700018BF9EEA445F73D023EA0E03DCF1200ED4
:104E800021EA045143F4801332D322FA0CFE10EBD2
:104E90000E0023FA0CFE41EB0E01CCF1200E03FABA
:104EA0000EFE10EB0E0051F10001B1F5801FCCF1A8
:104EB000200E32D201EB045112FA0EF2BDE810407E
:104EC00058BF7047401C38BF5FEA420218BF7047A6
:104ED000002814BF20F0010041F100014FEA410316
:104EE00013F5001F38BF7047A1F1C04100F00BBAA5
:104EF000012A43EB0302ACF1200CDCF11F0E32BFA0
:104F00004FF0000E23FA0CF310EB030041EB0451B9
:104F1000B4EB115FD0D0A1EB045101F58011490829
:104F20005FEA300001EB04510ED350F1000038BFAE
:104F300012FA0EFE08D1BDE81040C9E7401C38BF88
:104F40005FEA4202CAD1C3E7BDE810404FEA41031D
:104F500013F5001F38BF7047A1F1C04100F0D3B96D
:104F60009EEA445F08D011EA5E0FBDE8104004BF1E
:104F700001F0004100207047BDE8104070B500F01E
:104F800074F900BF64FBBE3E0000E0FF2DE9C041A4
:104F900030B4DFF8A0C23CEA111418BF3CEA131485
:104FA00000F0EC8081EA03051CEA111444EAD57490
:104FB00018BF1CEA131500F0C780A4EB05044FF0DE
:104FC000004545EAC12145EAC32341EA505143EA7D
:104FD000525304F17F74994204F500344FEAC02023
:104FE0004FEAC22208BF904200F09C804FEA13654E
:104FF0000FF24016765D4FEA134506FB05F7C7F141
:10500000807706FB07F74FEAD737A7FB036876429E
:10501000C8F58038A7FB06CE38BFA8F1010807FB0A
:1050200008E64FF0000EA6FB028CE6FB03CEDCF197
:10503000000CCEF1004E38BFAEF1010EA6FB0C58AD
:105040004FF000074FF00005E6FB0E87A1FB08C6F6
:10505000A0FB07CE16EB0E0645F10005E1FB076548
:1050600015F1E04E7EBFA4F580345FEA46066D413F
:1050700016F1800745F100054FEA17274FEA06664B
:1050800047EA0567A6F1DE46B6F1805F4FEA1525CF
:105090001FD9384624F0010C05EBC471BCF1FE6F3A
:1050A00001EB0C1102D8F0BCBDE8008124425CBFCA
:1050B00001F5801E9EEAC47F02D4F0BCBDE80081E9
:1050C000244238D4F0BCA1F1C041BDE8004100F059
:1050D0001AB94FEAD22242EA43524FEAD323A7FB3E
:1050E00002864FEAD02040EA415007FB03661EEAE1
:1050F0000E0F4FEAD12105FB026658BFA6EB005602
:10510000B6EB00564FEA520E4EEAC37E18EB0E0E77
:1051100056EB530EBDD518EB02085E417F1C55F1CE
:105120000005B6E74FF480154FF000074FF000067A
:105130004FF00008ADE7F0BC4FF0000001F1C041B6
:1051400001F00041BDE8008111EA0C1F0CEA1315C3
:1051500000D00CE013EA0C1F00F025804FF0000097
:10516000F0BC81EA030101F00041BDE80081F0BC20
:10517000BDE8004181EA030100F0C5B8F0BCBDE81C
:10518000004170B500F071F8097EFC3E00F007B8F0
:1051900081EA03014FF0000001F00041704781EA0D
:1051A000030100F0B0B8F0BCBDE800414FF00000D2
:1051B00021497047FFFDFBF9F7F5F4F2F0EEEDEB56
:1051C000E9E8E6E4E3E1E0DEDDDBDAD8D7D5D4D305
:1051D000D1D0CFCDCCCBCAC8C7C6C5C4C2C1C0BF51
:1051E000BEBDBCBBBAB9B8B7B6B5B4B3B2B1B0AF57
:1051F000AEADACABAAA9A8A8A7A6A5A4A3A3A2A13B
:10520000A09F9F9E9D9C9C9B9A99999897979695F5
:1052100095949393929191908F8F8E8E8D8C8C8B91
:105220008B8A898988888787868585848483838219
:10523000828181800000FF070000F87F10F00042AB
:1052400048BF4042B0FA80F310FA03F10AD0C3F12C
:105250001D0303F580634FEA415002EB035202EB5A
:10526000D12170474FF0000070470EF1020E2EF072
:10527000030E5EF8046B364205D4012A43EB0305A6
:1052800015F5001F12D8012841EB010C1CF5001F79
:105290000CD80ED14FEAD17C15F5001F0CEB4C0C4D
:1052A0000CF1020C08BF4CEBD37C04E04FF0080C6F
:1052B00001E04FEAD37C0CEB4C0526FA05F606F02C
:1052C0000706B6F1040C06D20EEB860CBDE8704062
:1052D0004CF0010C6047DFE80CF0090B02024FF0C4
:1052E00000414FF00000A1F5002170BD19461046A5
:1052F000012851EB010418BFD4F5001484BF00202D
:1053000001F0004170BD0808A0F500114FEA31011D
:105310007047000010B591EA030F48BF83F00043C7
:105320003FF594AD841A71EB030C07D212198CF07F
:10533000004C43EB0C03001B61EB0C01DFF8A4E114
:105340004FEA1154A4EB135C1EEA430F18BF9EEA08
:10535000445F00F0B08023EA6E03524221EA045118
:10536000C3EB6E0338BF5B1EDCF1200E25D322FA9F
:105370000CFE10EB0E0043FA0CFE41EB0E01CCF1DB
:10538000200E03FA0EFE10EB0E0051F10001CCF1DD
:10539000200E29D412FA0EF201EB0451BDE81040A0
:1053A00058BF7047401C1CBFB2F1004F7047002827
:1053B0000CBF491C20F00100704712EB020E43EBBA
:1053C000030218BF4FF0010E4EEA4202ACF1200C6E
:1053D000DCF11E0E54D943FA0CFE10EB0E0051F115
:1053E000FF31CCF11E0ED5D50EF1010E12FA0EFED4
:1053F000404141EB010101EB445C5FEA5C5C10D988
:1054000010EBDE7001EB045138BFBEF1004FBDE878
:10541000104018BF704700280CBF491C20F0010045
:10542000704730D24FEAD42C11F5001124F40064F7
:105430001BD0B1FA81F20B3AA41AA41ED2F12003B8
:10544000914030FA03F31943904001EBCC71002CEA
:1054500001EB0451BDE81040A8BF704701F1C04105
:105460004FF0000001F000417047B0FA80F310FAED
:1054700003F100D110BDE41A173C4805C90AE4E75E
:1054800001EB045110BD491001EB0451BDE810407F
:105490004FEA300002E04FF0000170474A0008BFB9
:1054A0000042F8D0B2F5001F28BF704701F000415C
:1054B0004FF0000070479EEA445F07D011EA5E0F8C
:1054C000BDE8104004BF002100207047BDE8104037
:1054D00070B5FFF7CAFE00BF40DFF63E83F0004123
:1054E000104670470000E0FF41000B0ED3F19E0212
:1054F00008D950F400034FEA032323FA02F048BF0F
:105500004042704710B500F08CF800BF49922480EB
:10551000002070476FF0004282EA200070470000D0
:105520004FF47F0C1CEAD0121EBF1CEAD11392EA82
:105530000C0F93EA0C0F00F0478090EA010F48BF70
:1055400042F480724FF0004C4CEA00204CEA0121FA
:1055500002EB0302A0FB0113A2F50002002918BF11
:1055600043F001035B0028BF4FEA330342EB2242C2
:105570005FEA132C4CEBC2502EBFBCEB436FB2F56D
:105580007C0F70474FEA036CBCF1004F08BF20F05E
:105590000100B2F57C0F38BF70470BD582F0FF02D7
:1055A00012F5803FC8BF704700F1C040D8BF00F07F
:1055B0000040704700F5000C5FEA4C0C48BF704794
:1055C000B0F1C04000F073B890EA010F0CEAD113BB
:1055D00048BF42F48072624538BF634504D280EA16
:1055E000010000F00040704710B500F01AF800BF4D
:1055F0008900013E00F007B800F009B85FEA410CED
:105600005FEA1C6C08D080EA010000F050B85FEA45
:10561000400C5FEA1C6CF6D14FF00040A0F5800012
:1056200070470EF1020E2EF0030E5EF8044B24427A
:1056300004D44FEA4102B2F17F4F11D84FEA400340
:10564000B3F17F4F0CD80ED14FEAD07CB2F17F4F2F
:105650000CEB4C0C0CF1020C08BF4CEBD17C04E0C1
:105660004FF0080C01E04FEAD17C0CEB4C0324FA1C
:1056700003F404F00704B4F1040C06D20EEB840C1E
:10568000BDE810404CF0010C6047DFE80CF0070863
:1056900002024FF00040A0F5800010BD0846420015
:1056A00018BFD2F1807288BF00F0004010BDFF210A
:1056B00041EAD050C0057047FEF7E9BC30313233C3
:1056C0003435363738394142434445464030580036
:1056D0003031323334353637383961626364656668
:1056E00040307800040000080000000000000002C4
:1056F0000001000010000000000000000000000099
:1057000002400000000000A0000000000540000072
:10571000000000C8000000000C4000000000409C99
:1057200000000000194000000020BCBE0000000086
:1057300034400000BFC91B8E00000004B5400000CB
:10574000504BCFD06607E2CF010000006C41000053
:105750003E8251AADFEEA73401000000D9420000CA
:10576000DCB5A0E23A301F97FFFFFFFFB445000011
:10577000FD25A0C8E9A3C14FFFFFFFFFFF3F0000C9
:105780000000008000000000FF3F000000000080DB
:1057900000000000415026535441C4A3CABD20005C
:1057A0004150C4A3CABD20003830383000313932EE
:1057B0002E3136382E302E3130340041544B2D45A9
:1057C0005350383236360036363634323142363679
:1057D0003600313233343536373800575041325F76
:1057E00050534B005750415F574150325F50534B1D
:1057F000005750415F50534B004F50454E005745A6
:1058000050003432316200777061777061325F61CD
:105810006573002055445020C4A3CABD00544350B2
:10582000BFCDBBA7B6CB00544350B7FECEF1C6F7F1
:1058300000000000805900080000002088000000DF
:1058400028010008085A000888000020A00E000067
:10585000440100081C00000043000000F8FFFFFFA7
:105860000C0000000E0000000F0000002E000000E1
:105870001001000043000000F8FFFFFF004040401F
:105880004040404040404141414141404040404013
:1058900040404040404040404040404040050202BF
:1058A000020202020202020202020202022020207E
:1058B00020202020202020020202020202029090DA
:1058C00090909090101010101010101010101010D8
:1058D000101010101010101002020202020288882C
:1058E0008888888808080808080808080808080838
:1058F0000808080808080808020202024000000020
:105900000000000000000000000000000000000097
:105910000000000000000000000000000000000087
:105920000000000000000000000000000000000077
:105930000000000000000000000000000000000067
:105940000000000000000000000000000000000057
:105950000000000000000000000000000000000047
:105960000000000000000000000000000000000037
:105970000000000000000000000000000000000027
:1059800000A24A040000000000000000010203041D
:1059900006070809010000000000000000000000E8
:1059A00000000000000000000102030401020304E3
:1059B0000607080902040608A8570008AD570008A2
:1059C0000258000807580008C7570008BB570008CE
:1059D00007580008D257000897570008A05700083A
:1059E00094570008275800081D580008135800084D
:1059F000F9570008FE570008F1570008DB57000868
:085A0000E4570008000000005B
:04000005080000ED02
:00000001FF
